:10000000006B016B026B0B6B0C6B0D6B0E6B0F6B54
:10001000106B116B126B096B020E036F050E046FF0
:10002000080E056F000E066F080E076F000E086FB2
:10003000946A956A966882688368846AE3EC00F043
:10004000826A836A12A139EC00F02AEC00F0837016
:1000500022EF00F0010E026F190E016FD7EC00F0D5
:100060006AEC00F0002BFAE3012FF8D7022FF6D745
:1000700012003EEC00F063EC00F01200050E096186
:1000800057EF00F0040E096159EF00F0030E09610B
:100090005BEF00F0020E09615DEF00F0010E0961F7
:1000A0005FEF00F0000E096161EF00F012000851EF
:1000B000120007511200065112000551120004519E
:1000C000120003511200826E092B060E0963120002
:1000D000096B120077EC00F087EC00F097EC00F071
:1000E000A7EC00F0B7EC00F0C7EC00F0120084B011
:1000F00085EF00F00CB17EEF00F012000C91032BA5
:100100000A0E03631200036B12000C81120084B20A
:1001100095EF00F00DB18EEF00F012000D91042B61
:100120000A0E04631200046B12000D81120084B4E5
:10013000A5EF00F00EB19EEF00F012000E91052B1E
:100140000A0E05631200056B12000E81120084B6C0
:10015000B5EF00F00FB1AEEF00F012000F91062BDB
:100160000A0E06631200066B12000F81120084B89B
:10017000C5EF00F010B1BEEF00F012001091072B98
:100180000A0E07631200076B12001081120084BA76
:10019000D5EF00F011B1CEEF00F012001191082B55
:1001A0000A0E08631200086B12001181120084BE4F
:1001B000E1EF00F00BB1DEEF00F012000B911271D5
:1001C00012000B811200050E026FFF0E016F002B53
:0C01D000FEE3012FFCD7022FFAD712002B
:020000040001F9
:04FFFC0000EF00F022
:020000040030CA
:0600010006191EF38381C5
:06000800FFC0FFE0FF4015
:00000001FF
