:10000000006B016B026B0B6B0C6B0D6B0E6B0F6B54
:10001000106B116B126B096B020E036F050E046FF0
:10002000080E056F000E066F080E076F000E086FB2
:10003000946A956A966882688368846AE3EC00F043
:10004000826A836AD7EC00F0CBEC00F05EEC00F043
:1000500012A12DEC00F022EF00F032EC00F057EC92
:1000600000F01200050E09614BEF00F0040E09616B
:100070004DEF00F0030E09614FEF00F0020E096131
:1000800051EF00F0010E096153EF00F0000E09611D
:1000900055EF00F0120008511200075112000651EE
:1000A0001200055112000451120003511200826E19
:1000B000092B060E09631200096B12006BEC00F0AD
:1000C0007BEC00F08BEC00F09BEC00F0ABEC00F074
:1000D000BBEC00F0120084B079EF00F00CB172EFCD
:1000E00000F012000C91032B0A0E03631200036B45
:1000F00012000C81120084B289EF00F00DB182EF82
:1001000000F012000D91042B0A0E04631200046B20
:1001100012000D81120084B499EF00F00EB192EF3D
:1001200000F012000E91052B0A0E05631200056BFC
:1001300012000E81120084B6A9EF00F00FB1A2EFF9
:1001400000F012000F91062B0A0E06631200066BD8
:1001500012000F81120084B8B9EF00F010B1B2EFB5
:1001600000F012001091072B0A0E07631200076BB4
:1001700012001081120084BAC9EF00F011B1C2EF71
:1001800000F012001191082B0A0E08631200086B90
:1001900012001181120084BED5EF00F00BB1D2EF36
:1001A00000F012000B91127112000B811200030E6D
:1001B000026FC80E016F002BFEE3012FFCD7022F48
:1001C000FAD783701200050E026FFF0E016F002B2D
:0C01D000FEE3012FFCD7022FFAD712002B
:020000040001F9
:04FFFC0000EF00F022
:020000040030CA
:0600010006191EF38381C5
:06000800FFC0FFE0FF4015
:00000001FF
