:10000000C3EC00F011A189EC00F00AEC00F0837061
:1000100002EF00F0190E006F14EC00F0012BFCE36E
:10002000002F0CEF00F0120023EC00F032EC00F097
:1000300041EC00F050EC00F05FEC00F06EEC00F0F2
:100040007DEC00F0120084B030EF00F003B12AEF35
:1000500000F012000A2B0A0E0A610A6B036B1200F1
:100060000381120084B23FEF00F004B139EF00F0D9
:1000700012000B2B0A0E0B610B6B046B1200048138
:10008000120084B44EEF00F005B148EF00F012000A
:100090000C2B0A0E0C610C6B056B12000581120013
:1000A00084B65DEF00F006B157EF00F012000D2BA3
:1000B0000A0E0D610D6B066B12000681120084B8EA
:1000C0006CEF00F007B166EF00F012000E2B0A0E85
:1000D0000E610E6B076B12000781120084BA7BEF72
:1000E00000F008B175EF00F012000F2B0A0E0F613F
:1000F0000F6B086B12000881120084BE87EF00F0BE
:1001000009B184EF00F01200096B1171120009812E
:10011000120094EC00F08EEC00F01200826E122BB4
:10012000060E1261126B1200050E1261ADEF00F0A7
:10013000040E1261AFEF00F0030E1261B1EF00F098
:10014000020E1261B3EF00F0010E1261B5EF00F084
:10015000000E1261B7EF00F012000F5112000E51A5
:1001600012000D5112000C5112000B5112000A51D5
:100170001200050E006F022BFEE3012BFCE3002FA3
:10018000BBEF00F01200116B126B020E0A6F050E2E
:100190000B6F080E0C6F000E0D6F080E0E6F000E29
:1001A0000F6F946A956A966882688368846AB9EC6E
:0801B00000F0826A836A12006C
:020000040001F9
:04FFFC0000EF00F022
:020000040030CA
:0600010006191EF38381C5
:06000800FFC0FFE0FF4015
:00000001FF
