:020000040000FA
:0400000007EF00F016
:0A0008004E82C8ED08F05EEF09F02B
:10100000007465737452430074657374545800001F
:1010100034C0D9FF35C0DAFFDECFF6FFDDCFF7FFF2
:101020000800F550250AD8A418EF08F01AEF08F0C8
:1010300061EF08F034C0D9FF35C0DAFFDE2A000EB8
:10104000DD22000E246E000E236E23C027F024C084
:1010500028F02568266834C0D9FF35C0DAFFDECF16
:10106000F6FFDDCFF7FF0800F550250AD8A43BEFC7
:1010700008F03DEF08F054EF08F034C0D9FF35C058
:10108000DAFFDE2A000EDD22000E2A6E250E296E02
:1010900032C02BF033C02CF07DEC08F0000E336E24
:1010A000010E326E7CEF08F034C0D9FF35C0DAFF94
:1010B000DE2A000EDD22000E336E000E326E7CEF53
:1010C00008F034C0D9FF35C0DAFFDECFF6FFDDCF40
:1010D000F7FF0800F550296E2A6A32C02BF033C0A2
:1010E0002CF07DEC08F034C0D9FF35C0DAFFDE2AE1
:1010F000000EDD224EEF08F012002B502C10D8B459
:1011000084EF08F086EF08F08FEF08F02B502C10DA
:10111000D8A48DEF08F08FEF08F094EF08F0295075
:1011200073EC09F0C7EF08F020EE04F02B50D9263D
:101130002C50DA22DE50DE10D8B4A1EF08F0A3EF75
:1011400008F0BEEF08F020EE04F02B50D9262C500A
:10115000DA2210EE02F02B50E1262C50E222DE5073
:10116000E65CE650800A316EDE50800A3158D8B015
:10117000BCEF08F0BEEF08F0C7EF08F020EE02F079
:101180002B50D9262C50DA22DE2A000EDD22120046
:101190000600E1CF46F0E2CF47F0D9CF48F0DACFF2
:1011A00049F0F6CF4AF0F7CF4BF0F8CF4CF0F5CF3F
:1011B0004DF09EAADEEF08F0E0EF08F0E9EF08F04E
:1011C000010E406E100E416E4BEC09F09E9AF6EF48
:1011D00008F09EA8EEEF08F0F0EF08F0F6EF08F048
:1011E000080E406E100E416E4BEC09F04DC0F5FF3D
:1011F0004CC0F8FF4BC0F7FF4AC0F6FF49C0DAFF0A
:1012000048C0D9FF47C0E2FF46C0E1FF4E9211003F
:101210003AC03EF03BC03FF0000E226E000E216E41
:1012200024EF09F038C032F039C033F03E0E346E8E
:10123000000E356E3CC036F03DC037F008EC08F0CB
:1012400032502126335022223EC0F6FF3FC0F7FF26
:101250000800F5500009D8A430EF09F032EF09F08A
:1012600012EF09F021C038F022C039F01200948E3C
:10127000949C040EAC6E900EAB6E7E86000E7F6E5C
:10128000560EAF6E000EF26E9D889D8A000E9E6E09
:10129000F28CF28E1200420E446E000E456E000E6D
:1012A000386E000E396E40C03AF041C03BF0440E3B
:1012B0003C6E000E3D6E08EC09F0120000EE01F0ED
:1012C000280EEE6AE806FDE14E904E92000EF86E92
:1012D000100EF76E00016DEF09F037EC09F06FEFBB
:0812E00009F007EF00F0120015
:020000040020DA
:08000000FFFFFFFFFFFFFFFF00
:020000040030CA
:0E000000FF06191EF38301FFFFC0FFE0FF4063
:00000001FF
