:020000040000FA
:0400000007EF00F016
:0A000800488229ED10F017EF15F003
:101000000024535043253033752563253032752332
:101010000024524553253033752530327523002482
:101020004645452530337525303375230024454D1D
:10103000502530327523000086C0D9FF87C0DAFF03
:10104000DECFF6FFDDCFF7FF000EF86E0800F5509B
:10105000250AD8A42EEF08F030EF08F0EDEF09F0E4
:1010600086C0D9FF87C0DAFFDE2A000EDD22000E1F
:10107000386E000E376E37C03BF038C03CF0396830
:101080003A68000E0001986F000E976F90EF08F01D
:101090003B8086C0D9FF87C0DAFFDE2A000EDD2242
:1010A00090EF08F03B8249EF08F03B8449EF08F0ED
:1010B0003B8649EF08F03B8849EF08F0000E986F37
:1010C000010E976F90EF08F086C0D9FF87C0DAFF56
:1010D000DECFF6FFDDCFF7FF000EF86E0800F5500B
:1010E0008A6F8B6B8B51000AD8B479EF08F05EEFF2
:1010F00008F08A51200AD8B458EF08F0030AD8B48F
:101100005BEF08F0080AD8B455EF08F0060AD8B427
:1011100048EF08F01D0AD8B452EF08F05EEF08F06F
:1011200097519811D8B497EF08F099EF08F064EF51
:1011300008F03BA09EEF08F0A0EF08F0A1EF08F048
:101140003B9286C0D9FF87C0DAFFDECFF6FFDDCF46
:10115000F7FF000EF86E0800F5502A0AD8A4B3EF86
:1011600008F0B5EF08F0DEEF08F086C0D9FF87C0C1
:10117000DAFFDE2A000EDD2288C0D9FF89C0DAFF3F
:10118000DFCF8AF0020EDE26DFCF8BF0000EDD22ED
:101190008AC0D9FF8BC0DAFFDECF37F0DDCF38F061
:1011A00038BED7EF08F0D5EF08F024EF09F03B8008
:1011B000376C381ED8B0382A24EF09F086C0D9FF22
:1011C00087C0DAFFDECF1FF0DDCF20F057EC0FF045
:1011D0001FC037F020C038F0F5EF08F086C0D9FF07
:1011E00087C0DAFFDE2A000EDD22D00E00018A6FF2
:1011F000FF0E8B6F86C0D9FF87C0DAFFDECFF6FF08
:10120000DDCFF7FF000EF86E0800F5508C6F8D6B88
:101210008A518C278B518D238D510AE10A0E8C5DEA
:10122000D8A015EF09F018EF09F0010E19EF09F039
:10123000000E996F9A6B99519A11D8A422EF09F078
:1012400024EF09F0EEEF08F086C0D9FF87C0DAFF7F
:10125000DECFF6FFDDCFF7FF000EF86E0800F55089
:10126000630AD8A436EF09F038EF09F05FEF09F010
:1012700086C0D9FF87C0DAFFDE2A000EDD2288C0D3
:10128000D9FF89C0DAFFDFCF8AF0020EDE26DFCF7A
:101290008BF0000EDD228AC0D9FF8BC0DAFFDF5051
:1012A000966F84C021F085C022F096C023F016EC22
:1012B00013F021C084F022C085F00AEF0AF086C046
:1012C000D9FF87C0DAFFDECFF6FFDDCFF7FF000ED4
:1012D000F86E0800F550750AD8A471EF09F073EFA5
:1012E00009F0B4EF09F086C0D9FF87C0DAFFDE2A23
:1012F000000EDD2288C0D9FF89C0DAFFDFCF8AF077
:10130000020EDE26DFCF8BF0000EDD228AC0D9FF71
:101310008BC0DAFFDECF8CF0DDCF8DF08CC08EF08D
:101320008DC08FF0906B916B926B936B946B956B00
:1013300084C064F085C065F08EC066F08FC067F031
:1013400090C068F091C069F092C06AF093C06BF0F1
:1013500094C06CF095C06DF068EC0CF064C084F043
:1013600065C085F00AEF0AF086C0D9FF87C0DAFFB2
:10137000DECFF6FFDDCFF7FF000EF86E0800F55068
:10138000250AD8A4C6EF09F0C8EF09F0E0EF09F08C
:1013900086C0D9FF87C0DAFFDE2A000EDD22000EEC
:1013A000196E250E186E84C01AF085C01BF04DEC26
:1013B00014F0000E0001856F010E846F0AEF0AF031
:1013C00086C0D9FF87C0DAFFDE2A000EDD22000EBC
:1013D000856F000E846F0AEF0AF086C0D9FF87C0C0
:1013E000DAFFDECFF6FFDDCFF7FF000EF86E080064
:1013F000F550186E196A84C01AF085C01BF04DECC8
:1014000014F086C0D9FF87C0DAFFDE2A000EDD2285
:10141000D9EF09F01200240E01012019D8A413EF0E
:101420000AF015EF0AF03CEF0BF01F0E0001F1255A
:10143000D96E010EF221DA6E230EDE18D8B423EF36
:101440000AF025EF0AF029EF0AF03CEF0BF03CEF31
:101450000BF0470E01012119D8A431EF0AF033EF48
:101460000AF040EF0AF04F0E2219D8A43AEF0AF022
:101470003CEF0AF040EF0AF0B7EC18F03CEF0BF04D
:10148000450E2119D8A447EF0AF049EF0AF05FEFA3
:101490000AF04E0E2219D8A450EF0AF052EF0AF0CB
:1014A0005FEF0AF0440E2319D8A459EF0AF05BEF5E
:1014B0000AF05FEF0AF060EC18F03CEF0BF0500E12
:1014C0002119D8A466EF0AF068EF0AF09EEF0AF03F
:1014D000520E2219D8A46FEF0AF071EF0AF09EEFB6
:1014E0000AF04B0E2319D8A478EF0AF07AEF0AF02D
:1014F0009EEF0AF02451640DF3CFE1F0F4CFE2F057
:1015000025510A0DF3500001E127F450E2230101B7
:1015100026510001E127000EE223300EE1250201F1
:10152000D96FEB0E0001E2210201DA6FD9C2D7F0C8
:10153000DAC2D8F008EC18F03CEF0BF0450E211998
:10154000D8A4A5EF0AF0A7EF0AF0DDEF0AF0580ED5
:101550002219D8A4AEEF0AF0B0EF0AF0DDEF0AF0DE
:10156000540E2319D8A4B7EF0AF0B9EF0AF0DDEF53
:101570000AF02451640DF3CFE1F0F4CFE2F02551ED
:101580000A0DF3500001E127F450E2230101265136
:101590000001E127000EE223300EE1250201D96FA0
:1015A000EB0E0001E2210201DA6FD9C2D9F0DAC2F2
:1015B000DAF062EC0EF03CEF0BF0530E2119D8A4D8
:1015C000E4EF0AF0E6EF0AF027EF0AF0550E2219D1
:1015D000D8A4EDEF0AF0EFEF0AF027EF0AF0420E81
:1015E0002319D8A4F6EF0AF0F8EF0AF027EF0AF073
:1015F0002451640DF3CFE1F0F4CFE2F025510A0D50
:10160000F3500001E127F450E223010126510001CB
:10161000E127000EE223300EE1250201D96FEB0E27
:101620000001E2210201DA6F01012751BF0F02011F
:10163000D86F010128510A0DF3CFE1F0F4CFE2F0A9
:1016400029510001E127000EE223EF0EE1250201FE
:10165000D66FFD0E0001E2210201D76FD9C2C8F09A
:10166000DAC2C9F0D8C2CAF00001CB6BD6C2CCF046
:10167000D7C2CDF096EC11F01200F8C0D1F0F9C04D
:10168000D2F0FAC0D3F0FBC0D4F0000E0001D56F49
:10169000000ED66FD651020DF3CFCBF0F4CFCCF0C5
:1016A000D551140D2C0ECD6F010ECE6FF350CD27FA
:1016B000F450CE23CB51CD25D96ECC51CE21DA6E4C
:1016C000C951DE1807E1CA51DE18D8A46AEF0BF041
:1016D0006CEF0BF0B5EF0BF0D651020DF3CFCBF062
:1016E000F4CFCCF0D551140D7C0ECD6F010ECE6F22
:1016F000F350CD27F450CE23CB51CD25D96ECC510C
:10170000CE21DA6EDE2806E1DE28D8A48AEF0BF0BF
:101710008CEF0BF0B5EF0BF0D651020DF3CFCBF001
:10172000F4CFCCF0D551140D7C0ECD6F010ECE6FE1
:10173000F350CD27F450CE23CB51CD25D96ECC51CB
:10174000CE21DA6EC9C0DEFFCAC0DDFFFE07D8A019
:10175000FF07D6C0B7F0C9C0B8F0CAC0B9F0D551BC
:101760005EEC15F0020E67EF0CF0D651020DF3CFD0
:10177000CBF0F4CFCCF0D551140D2C0ECD6F010E63
:10178000CE6FF350CD27F450CE23CB51CD25D96E5B
:10179000CC51CE21DA6EDE2806E1DE28D8A4D3EFC4
:1017A0000BF0D5EF0BF0FBEF0BF0D651020DF3CFA2
:1017B000CBF0F4CFCCF0D551140D7C0ECD6F010ED3
:1017C000CE6FF350CD27F450CE23CB51CD25D96E1B
:1017D000CC51CE21DA6EDE2806E1DE28D8A4F3EF64
:1017E0000BF0F5EF0BF0FBEF0BF0D5C0D1F0D26BA7
:1017F000D6C0D3F0D46BD62B090ED66502EF0CF011
:1018000004EF0CF04AEF0BF0D52B030ED5650BEF70
:101810000CF00DEF0CF048EF0BF0D12908E1D229C4
:10182000D8B415EF0CF017EF0CF066EF0CF0FE07D4
:10183000D8A0FF07D3C0B7F0C9C0B8F0CAC0B9F08C
:10184000D1515EEC15F0D1C018F0D2C019F0000EE5
:101850001B6E140E1A6E97EC18F07C0E0001CB6F05
:10186000010ECC6F1850CB271950CC23D890D3350C
:10187000D96ED435DA6ECB51D926CC51DA22C9C013
:10188000DEFFCAC0DDFFD1C018F0D2C019F0000ED3
:101890001B6E140E1A6E97EC18F0800E0001CB6FC1
:1018A000020ECC6F1850CB271950CC23D890D335CB
:1018B000D96ED435DA6ECB51D926CC51DA22000E4E
:1018C000DE6E000EDD6E010E67EF0CF0000E1200F2
:1018D0003ABE6DEF0CF06FEF0CF070EF0CF03B9236
:1018E0003ABE7DEF0CF03A5006E13904D8B07BEFF8
:1018F0000CF07DEF0CF084EF0CF0000E0001776F20
:10190000010E766F88EF0CF039C076F03AC077F0B0
:1019100037C078F038C079F066C07AF067C07BF0E5
:1019200068C07CF069C07DF06AC07EF06BC07FF05B
:101930006CC080F06DC081F0000E0001836F1F0E3F
:10194000826F000E0101EB6F1DEF0DF08207D8A032
:101950008307CC0E8225D96E010E8321DA6E7AC000
:1019600018F07BC019F07CC01AF07DC01BF07EC05F
:101970001CF07FC01DF080C01EF081C01FF00A0E59
:10198000206E000E216E000E226E000E236E000EE1
:10199000246E000E256E000E266E000E276E80EC63
:1019A00013F018C06EF019C06FF01AC070F01BC0B1
:1019B00071F01CC072F01DC073F01EC074F01FC027
:1019C00075F000016E51300FDF6E7607D8A07707F3
:1019D0007807D8A079077AC018F07BC019F07CC0CE
:1019E0001AF07DC01BF07EC01CF07FC01DF080C0CF
:1019F0001EF081C01FF00A0E206E000E216E000E38
:101A0000226E000E236E000E246E000E256E000E58
:101A1000266E000E276E9EEC12F018C07AF019C0E8
:101A20007BF01AC07CF01BC07DF01CC07EF01DC096
:101A30007FF01EC080F01FC081F000018251831131
:101A4000D8B425EF0DF027EF0DF057EF0DF07A51D8
:101A50007B117C117D117E117F1180118111D8A421
:101A600034EF0DF036EF0DF0A6EF0CF077BF43EF3B
:101A70000DF0775106E17605D8B041EF0DF043EF58
:101A80000DF0A6EF0CF079BF4EEF0DF0795108E1A3
:101A90007805D8A04EEF0DF050EF0DF057EF0DF098
:101AA0003BB255EF0DF057EF0DF0A6EF0CF064C010
:101AB00028F065C029F0CC0E82252A6E010E832104
:101AC0002B6E78C02CF079C02DF0E8EC13F028C014
:101AD00064F029C065F01200AAEC18F027EC18F0A9
:101AE000B2EC14F0230E0001F619D8A47AEF0DF031
:101AF0007CEF0DF09CEF0DF0A2EC17F0000E000152
:101B0000F66F0BEC0AF0000E0201E36F200EE325E6
:101B1000D96EDA6A010EDA22000EDF6EE32B0B0EAD
:101B2000E36595EF0DF097EF0DF086EF0DF0000EE9
:101B30000001F26F000EF16F140EF719D8A4A3EF95
:101B40000DF0A5EF0DF0BCEF0DF0000EF76F000EDD
:101B5000F06F000EEF6F010EE8EC17F00009D8B43B
:101B6000B4EF0DF0B6EF0DF0B8EF0DF055EC16F048
:101B7000AC8A000E0001F56F320EF419D8A4C3EF41
:101B80000DF0C5EF0DF018EF0EF0000E0201E46F3E
:101B9000000EE56FE551020DF3CFDBF2F4CFDCF27E
:101BA000E451140D7C0EDD6F010EDE6FF350DD2766
:101BB000F450DE23DB51DD25D96EDC51DE21DA6EF7
:101BC000DE2808E1DE28D8B4E8EF0DF0EAEF0DF0EA
:101BD00003EF0EF0E551020DF3CFDBF2F4CFDCF2B0
:101BE000E451140D800EDD6F020EDE6FF350DD2721
:101BF000F450DE23DB51DD25D96EDC51DE21DA6EB7
:101C0000DE2A000EDD22E52B090EE5650AEF0EF057
:101C10000CEF0EF0CAEF0DF0E42B030EE46513EFAA
:101C20000EF015EF0EF0C8EF0DF0000E0001F46F8E
:101C3000640EF319D8A41FEF0EF021EF0EF072EF2F
:101C40000DF0C282C2B227EF0EF029EF0EF022EFA4
:101C50000EF0C4500201DC6FDB6BC350DB25E16F7B
:101C6000000EDC21E26FE205D8B039EF0EF03BEF59
:101C70000EF03FEF0EF0000E406E5BEF0EF0020E26
:101C8000E25DD8B046EF0EF048EF0EF04CEF0EF0EC
:101C9000010E406E5BEF0EF0030EE25DD8B053EF25
:101CA0000EF055EF0EF059EF0EF0020E406E5BEFA6
:101CB0000EF0030E406E000E0001F36F72EF0DF098
:101CC00007EF00F0000E0201D36F000ED26F000E7E
:101CD000D46F000ED56FD551020DF3CFDBF0F4CFEA
:101CE000DCF0D451140D7C0E0001DD6F010EDE6FAF
:101CF000F350DD27F450DE23DB51DD25D96EDC51B6
:101D0000DE21DA6ED951DE1807E1DA51DE18D8A4E7
:101D10008CEF0EF08EEF0EF043EF0FF00201D55175
:101D2000020DF3CFDBF0F4CFDCF0D451140D7C0EB8
:101D30000001DD6F010EDE6FF350DD27F450DE236E
:101D4000DB51DD25D96EDC51DE21DA6EFF0EDE6E51
:101D5000FF0EDD6E0201D551020DF3CFDBF0F4CFA3
:101D6000DCF0D451140D2C0E0001DD6F010EDE6F7E
:101D7000F350DD27F450DE23DB51DD25D96EDC5135
:101D8000DE21DA6ED951DE1809E1DA51DE18D8B455
:101D9000CCEF0EF0CEEF0EF0F3EF0EF00201D551C6
:101DA000020DF3CFDBF0F4CFDCF0D451140D800E34
:101DB0000001DD6F020EDE6FF350DD27F450DE23ED
:101DC000DB51DD25D96EDC51DE21DA6EDECFDFF0AE
:101DD000DDCFE0F0010EDF250201D26F000E000121
:101DE000E0210201D36F0201D551020DF3CFDBF0E8
:101DF000F4CFDCF0D451140D800E0001DD6F020E23
:101E0000DE6FF350DD27F450DE23DB51DD25D96E84
:101E1000DC51DE21DA6E000EDE6E000EDD6E020198
:101E2000D2513D26D3513E220001FE4BFF2BD9C09B
:101E3000B7F0DAC0B8F0D2C2B9F0D3C2BAF01CEC35
:101E400016F0020EE8EC17F00009D8A42AEF0FF004
:101E50002CEF0FF056EF0FF0D3EC18F0000E076EDA
:101E6000100E066E020EF8EC10F006C0D0F207C09D
:101E7000D1F2D0EC18F0D0C2D7F0D1C2D8F008EC33
:101E800018F056EF0FF00201D52B090ED5654BEF78
:101E90000FF04DEF0FF06BEF0EF0D42B030ED46567
:101EA00054EF0FF056EF0FF069EF0EF01200000E36
:101EB0002D6E000E2C6E000E266E000E256E63EF4A
:101EC0000FF01F4A202A010E2B6E1FC0F6FF20C004
:101ED000F7FF000EF86E0800F550200AD8B473EF33
:101EE0000FF075EF0FF094EF0FF0F70E216EFF0E6D
:101EF000226E1FC0F6FF20C0F7FF000EF86E08002C
:101F0000F550236E246A2150232622502422245087
:101F100009E1050E235CD8A090EF0FF092EF0FF0CF
:101F200094EF0FF0000E2B6E2BC027F0286A27507D
:101F30002810D8A49EEF0FF0A0EF0FF061EF0FF084
:101F4000AAEF0FF0000E266E010E256E1F4A202A02
:101F5000E3EF0FF01FC0F6FF20C0F7FF000EF86E92
:101F60000800F550216E226A2250000AD8B4BBEF57
:101F70000FF0E3EF0FF021502B0AD8B4A6EF0FF0CB
:101F8000060AD8B4A2EF0FF0E3EF0FF02CC018F060
:101F90002DC019F0000E1B6E0A0E1A6E97EC18F089
:101FA0001FC0F6FF20C0F7FF000EF86E0800F550C6
:101FB000185E000E195A300E18242C6E000E1920CF
:101FC0002D6EA6EF0FF0D00E216EFF0E226E1FC0F9
:101FD000F6FF20C0F7FF000EF86E0800F550236EE4
:101FE000246A215023262250242224500AE10A0E7A
:101FF000235CD8A0FEEF0FF001EF10F0010E02EF0E
:1020000010F0000E296E2A6A29502A10D8A40BEF6E
:1020100010F00DEF10F0C6EF0FF025502610D8A4E9
:1020200014EF10F016EF10F024EF10F02CC021F098
:102030002DC022F0211E221E214A222A21C01FF07B
:1020400022C020F028EF10F02CC01FF02DC020F08F
:1020500012000600E1CF10F0E2CF11F0D9CF12F05C
:10206000DACF13F0F3CF14F0F4CF15F09EAA3BEFC4
:1020700010F03DEF10F059EF10F09E9AAECF43F004
:10208000ABB445EF10F047EF10F04EEF10F0ABA2FD
:102090004CEF10F04EEF10F054EF10F0AB94AB9209
:1020A000AB98AB8859EF10F0435025EC17F00001C6
:1020B000F66F9EA85EEF10F060EF10F080EF10F06A
:1020C000020E076E000E066E010EF8EC10F00650C0
:1020D000446E230E4418D8A470EF10F072EF10F085
:1020E0007EEF10F044C0ADFFACA279EF10F07BEFB3
:1020F00010F074EF10F0AC9A80EF10F044C0ADFF18
:10210000F2A485EF10F087EF10F0C8EF10F0F29412
:102110003C0ED76EAF0ED66E0001F42BF72BF32BCF
:10212000A1EC15F03F50020DF60EF324D96E010E0E
:10213000F420DA6EDECF03F0DDCF04F0FCC001F056
:10214000FDC002F0E2EC15F001C008F002C009F099
:10215000000E0B6E0A0E0A6EF3EC16F0EC0E08245D
:10216000D96E010E0920DA6EDF50886E3F500308E9
:102170000E6E010E0F6E0E2AC0EF10F0D8900F36C3
:102180000E2EBEEF10F00F50876E3F28030B3F6EF0
:10219000F2A0CDEF10F0CFEF10F0EAEF10F081CF0A
:1021A00016F016380F0B010B176E4204D8A4DBEFA4
:1021B00010F0DDEF10F0E7EF10F01750D8A4E3EFC8
:1021C00010F0E5EF10F0E7EF10F0010E411A17C024
:1021D00042F0F29015C0F4FF14C0F3FF13C0DAFF11
:1021E00012C0D9FF11C0E2FF10C0E1FF48921100F8
:1021F0000D6E0D50E8EC17F00009D8B402EF11F0A5
:1022000004EF11F00AEF11F0000E076E000E066EDB
:1022100095EF11F00D50D8A410EF11F012EF11F05E
:102220002BEF11F00D50020DE30EF324D96E000ECA
:10223000F420DA6EDECF08F0DDCF09F0E60E0824D8
:10224000D96E040E0920DA6EDF500A6E0A500B6E4A
:102250000C6A66EF11F0020E0D18D8A432EF11F0DF
:1022600034EF11F04FEF11F00D50020DE30EF32497
:10227000D96E000EF420DA6EDECF08F0DDCF09F063
:10228000D89008360936000E0824D96E010E0920B0
:10229000DA6EDECF0BF0DDCF0CF066EF11F00D50F3
:1022A000020DE30EF324D96E000EF420DA6EDECFB9
:1022B00008F0DDCF09F0E60E0824D96E020E0920E1
:1022C000DA6EDF500A6E0A500B6E0C6A0D50020D6A
:1022D000E30EF324D96E000EF420DA6EDE2A000E2F
:1022E000DD220D50020DE30EF324D96E000EF42012
:1022F000DA6E0650DE1807E10750DE18D8A483EF27
:1023000011F085EF11F091EF11F00D50020DE30E79
:10231000F324D96E000EF420DA6E000EDE6E000E8D
:10232000DD6E0BC006F00CC007F01200000E0001BD
:10233000D36F000ED26FCAC018F0CBC019F0000ED8
:102340001B6E140E1A6E97EC18F07C0E0001CE6F07
:10235000010ECF6F1850CE271950CF23D890CC350F
:10236000D96ECD35DA6ECE51D926CF51DA22DE289C
:1023700006E1DE28D8A4BFEF11F0C1EF11F00BEF9A
:1023800012F0CAC018F0CBC019F0000E1B6E140E6C
:102390001A6E97EC18F02C0E0001CE6F010ECF6F65
:1023A0001850CE271950CF23D890CC35D96ECD35C3
:1023B000DA6ECE51D926CF51DA22DE2806E1DE28A8
:1023C000D8A4E5EF11F0E7EF11F00BEF12F0000EDB
:1023D000D36F320ED26FCAC018F0CBC019F0000E06
:1023E0001B6E140E1A6E97EC18F02C0E0001CE6FB7
:1023F000010ECF6F1850CE271950CF23D890CC356F
:10240000D96ECD35DA6ECE51D926CF51DA22C8C079
:10241000DEFFC9C0DDFFD2513D26D3513E22C8C0E8
:10242000B7F0C9C0B8F0D2C0B9F0D3C0BAF08CECE4
:1024300016F012001A50D8A420EF12F022EF12F07A
:1024400038EF12F01A50020D310EF324D96E000E3F
:10245000F420DA6EDECF1DF0DDCF1EF0E60E1D2477
:10246000D96E040E1E20DA6E18C0DFFF70EF12F076
:10247000020E1A18D8A43FEF12F041EF12F05CEFF1
:1024800012F01A50020D310EF324D96E000EF42012
:10249000DA6EDECF1DF0DDCF1EF0D8901D361E3671
:1024A000000E1D24D96E010E1E20DA6E18C0DEFF4C
:1024B00019C0DDFF70EF12F01A50020D310EF32437
:1024C000D96E000EF420DA6EDECF1DF0DDCF1EF0E7
:1024D000E60E1D24D96E020E1E20DA6E18C0DFFF34
:1024E0001A50020D310EF324D96E000EF420DA6E6C
:1024F000DE2A000EDD221A50020D310EF324D96EB1
:10250000000EF420DA6E1B50DE1807E11C50DE18B6
:10251000D8A48DEF12F08FEF12F09DEF12F01A5049
:10252000020D310EF324D96E000EF420DA6E000E87
:10253000DE6E000EDD6E9DEF12F0120020EE28F030
:10254000070EDE6AE806FDE220502110221023105B
:102550002410251026102710D8B4B1EF12F0B3EFD5
:1025600012F005EF13F0010E306EC1EF12F0D890AB
:10257000203621362236233624362536263627368F
:10258000302A27AEC6EF12F0C8EF12F0B7EF12F004
:10259000D890283629362A362B362C362D362E362C
:1025A0002F362050185C2150195822501A582350A9
:1025B0001B5824501C5825501D5826501E58275073
:1025C0001F58D8A0E6EF12F0E8EF12F0F9EF12F082
:1025D0002050185E2150195A22501A5A23501B5A63
:1025E00024501C5A25501D5A26501E5A27501F5A37
:1025F0002880D890273226322532243223322232C4
:1026000021322032302EC8EF12F028C018F029C035
:1026100019F02AC01AF02BC01BF02CC01CF02DC0E2
:102620001DF02EC01EF02FC01FF0120037503810C2
:10263000D8A41DEF13F01FEF13F025EF13F037C0F0
:1026400027F038C028F02BEF13F0FF0E3724276E49
:10265000FF0E3820286E3BA030EF13F032EF13F05E
:102660003BEF13F023C018F0196A21C01AF022C002
:102670001BF04DEC14F028BE40EF13F042EF13F0C6
:1026800044EF13F048EF13F0000E286E000E276E93
:10269000000E266E000E256E5AEF13F0000E196E16
:1026A000200E186E21C01AF022C01BF04DEC14F061
:1026B000254A262A2750255C2650800A246E285059
:1026C000800A2458D8A067EF13F069EF13F04EEF9B
:1026D00013F03BB06EEF13F070EF13F079EF13F0DF
:1026E00023C018F0196A21C01AF022C01BF04DEC6B
:1026F00014F0010E2524216E000E2620226E1200F9
:1027000020502110221023102410251026102710ED
:10271000D8B48DEF13F08FEF13F0D7EF13F0010E55
:10272000286E9DEF13F0D8902036213622362336BE
:102730002436253626362736282A27AEA2EF13F070
:10274000A4EF13F093EF13F02050185C21501958A8
:1027500022501A5823501B5824501C5825501D58DD
:1027600026501E5827501F58D8A0B9EF13F0BBEFC2
:1027700013F0CBEF13F02050185E2150195A22505D
:102780001A5A23501B5A24501C5A25501D5A2650A1
:102790001E5A27501F5AD89027322632253224320B
:1027A0002332223221322032282EA4EF13F018C017
:1027B00018F019C019F01AC01AF01BC01BF01CC089
:1027C0001CF01DC01DF01EC01EF01FC01FF0120027
:1027D0003BA0EDEF13F0EFEF13F0F9EF13F02AC089
:1027E00021F02BC022F028C023F029C024F0C6EC31
:1027F00017F02DBEFEEF13F000EF14F006EF14F00B
:102800002CC062F02DC063F00BEF14F0000E00013D
:10281000636F000E626F000E0001616F000E606F4B
:102820001FEF14F0000E196E200E186E28C01AF05B
:1028300029C01BF04DEC14F00001604B612B62517C
:10284000605D6151800A2E6E6351800A2E58D8A0B7
:102850002CEF14F02EEF14F012EF14F03BB033EF26
:1028600014F035EF14F03FEF14F02AC021F02BC024
:1028700022F028C023F029C024F0C6EC17F02AC0AB
:1028800018F02BC019F07CEC18F0000162511824EC
:10289000286E63511920296E12001A501B10D8B4EB
:1028A00054EF14F056EF14F05FEF14F01A501B10B1
:1028B000D8A45DEF14F05FEF14F064EF14F018503B
:1028C000D6EC18F0B1EF14F020EE04F01A50D9262F
:1028D0001B50DA22DE50DE10D8B471EF14F073EF23
:1028E00014F08EEF14F020EE04F01A50D9261B508D
:1028F000DA2210EE02F01A50E1261B50E222DE50DE
:10290000E65CE650800A206EDE50800A2058D8B07F
:102910008CEF14F08EEF14F0B1EF14F020EE02F013
:102920001A50D9261B50DA22DECF1CF0DDCF1DF065
:102930001AC0D9FF1BC0DAFFDECF1EF0DDCF1FF0BB
:102940001C501E24D96E1D501F20DA6E18C0DFFFE8
:1029500020EE02F01A50D9261B50DA22DE2A000E91
:10296000DD221200000E1C6E000E1D6E1D50020DA9
:10297000F3CF18F0F4CF19F01C50140D7C0E1A6E22
:10298000010E1B6EF3501A26F4501B2218501A2405
:10299000D96E19501B20DA6EFF0EDE6EFF0EDD6E53
:1029A0001D50020DF3CF18F0F4CF19F01C50140D88
:1029B000800E1A6E020E1B6EF3501A26F4501B2264
:1029C00018501A24D96E19501B20DA6E000EDE6ED4
:1029D000000EDD6E1D50020DF3CF18F0F4CF19F08C
:1029E0001C50140D2C0E1A6E010E1B6EF3501A267D
:1029F000F4501B2218501A24D96E19501B20DA6E7D
:102A0000FF0EDE6EFF0EDD6E1D2A090E1D640BEF3C
:102A100015F00DEF15F0B6EF14F01C2A030E1C6430
:102A200014EF15F016EF15F0B4EF14F01200860E47
:102A3000F66E310EF76E000EF86E01EEECF010EE51
:102A400012F00900F5CFEEFFE550E150FAE1980EE3
:102A5000F66E310EF76E000EF86E00EEF8F010EE26
:102A600008F00900F5CFEEFFE550E150FAE102EE83
:102A7000E6F014EE00F0EE6AE550E150FCE1E250C1
:102A8000FAE102EE00F0D00EEE6AE806FDE101EE9A
:102A900000F0EC0EEE6AE806FDE100EEE3F0150E44
:102AA000EE6AE806FDE100EE31F0170EEE6AE80688
:102AB000FDE14890489200016CEF0DF00001C76FF6
:102AC000BB0E0001A36F000EA46F010EA56F100EC8
:102AD000A66FB8C0A7F0B9C0A8F0410EC725A96F6E
:102AE000AA6B000EAA23010EB725AB6FAC6B000ECC
:102AF000AC2350EC17F0000E0001C86FD3EC18F0B7
:102B0000BB0E0001C825D96EDA6A000EDA22DF504A
:102B1000BA6FBA51186E196A010E1A6E020E1C6E47
:102B2000000E1B6E1AEC12F0D0EC18F00001C82B4E
:102B30000A0EC8659EEF15F0A0EF15F07EEF15F0B8
:102B400012004104D8A4A7EF15F0A9EF15F0DDEFAE
:102B500015F0000E076E000E086E0850020DF3CF40
:102B600001F0F4CF02F04050140D7C0E036E010E04
:102B7000046EF3500326F450042201500324D96E4E
:102B800002500420DA6EDE2806E1DE28D8A4CBEF5E
:102B900015F0CDEF15F0CEEF15F0072A082A090E33
:102BA0000864D5EF15F0D7EF15F0ADEF15F007C0BD
:102BB000FCF00001FD6BE1EF15F03DC0FCF03EC004
:102BC000FDF01200000E066E000E056E035004109C
:102BD000D8B4EDEF15F0EFEF15F017EF16F0010E8A
:102BE000076EF7EF15F0D89003360436072A04AEC7
:102BF000FCEF15F0FEEF15F0F3EF15F0D890053669
:102C000006360350015C04500258D8A00AEF16F0B3
:102C10000CEF16F011EF16F00350015E0450025A4B
:102C20000580D89004320332072EFEEF15F005C060
:102C300001F006C002F01200BC0E0001A36F000EEE
:102C4000A46F1F0EA56F100EA66FB7C0A7F0B8C077
:102C5000A8F0B9C0A9F0BAC0AAF050EC17F0000E65
:102C60000001C86FD3EC18F0BC0E0001C825D96E66
:102C7000DA6A000EDA22DF50BB6FBB51186E196A98
:102C8000010E1A6E020E1C6E000E1B6E1AEC12F074
:102C9000D0EC18F00001C82B0A0EC86552EF16F0F0
:102CA00054EF16F032EF16F01200B80E0001A36FC9
:102CB000000EA46F2D0EA56F100EA66FFEC0A7F01C
:102CC000FFC0A8F050EC17F07CEF16F0B80EEF251F
:102CD000D96E000EF021DA6EDF50B76FB751186E63
:102CE000196A010E1A6E020E1C6E000E1B6E1AEC93
:102CF00012F00001EF4BF02B0001F0BF89EF16F04E
:102D0000F05109E1070EEF5DD8A089EF16F08BEFC7
:102D100016F066EF16F01200BC0E0001A36F000E55
:102D2000A46F110EA56F100EA66FB7C0A7F0B8C0A4
:102D3000A8F0B9C0A9F0BAC0AAF050EC17F0000E84
:102D40000001C76FBC0EC725D96EDA6A000EDA2201
:102D5000DF50BB6FBB51186E196A010E1A6E020E5E
:102D60001C6E000E1B6E1AEC12F00001C72B090E30
:102D7000C765BDEF16F0BFEF16F0A2EF16F0120018
:102D80009DC0A1F09EC0A2F0000E0001EA6F000EEF
:102D9000E96FDEEF16F09BC084F09CC085F0A10EB9
:102DA000866F000E876F9FC088F0A0C089F01CEC72
:102DB00008F000018451E9278551EA23A1C0F6FFFC
:102DC000A2C0F7FF000EF86E0800F5500009D8A465
:102DD000ECEF16F0EEEF16F0CBEF16F0E9C09BF03B
:102DE000EAC09CF012000A500B10D8B4FAEF16F0AB
:102DF000FCEF16F020EF17F0010E0C6E04EF17F049
:102E0000D8900A360B360C2A0BAE09EF17F00BEFF1
:102E100017F000EF17F00A50085C0B500958D8A0C3
:102E200014EF17F016EF17F01AEF17F00A50085EBC
:102E30000B50095AD8900B320A320C2E0BEF17F0B8
:102E400008C008F009C009F01200016EE60E312436
:102E5000D96E040E3220DA6E01C0DFFF314A322A09
:102E6000020E32183110D8A438EF17F03AEF17F0ED
:102E70003EEF17F0000E326E000E316E0001E3518E
:102E8000311807E1E4513218D8A449EF17F04BEF9D
:102E900017F04EEF17F0000E4FEF17F00150120031
:102EA000A70E0001AF6F000EB06FA3C0B1F0A4C0B9
:102EB000B2F0000EB46F000EB36F000EB66F000ECE
:102EC000B56FB10E9B6F000E9C6FA5C09DF0A6C0A4
:102ED0009EF0AF0E9F6F000EA06FC0EC16F00001C9
:102EE000B351A325D96EB451A421DA6E000EDF6E62
:102EF0001200010E1E6E200E18181910D8B483EFA0
:102F000017F085EF17F09EEF17F0F70E1A6EFF0E11
:102F10001B6E18C01CF019C01DF01A501C261B5047
:102F20001D221D5009E1050E1C5CD8A09AEF17F078
:102F30009CEF17F09EEF17F0000E1E6E1EC018F0EB
:102F4000196A1200BAEF17F0D3EC18F0020E076EF0
:102F5000000E066E000EF8EC10F0200E0001F125B8
:102F6000D96E010EF221DA6E06C0DFFFF14BF22BB3
:102F7000D0EC18F0000EE8EC17F00009D8B4C3EF5D
:102F800017F0C5EF17F0A4EF17F01200000E276E30
:102F9000000E266ED7EF17F025C018F0196A23C06F
:102FA0001AF024C01BF04DEC14F0264A272A2650B4
:102FB0002124D96E27502220DA6EDF50256E25504D
:102FC000D8A4E5EF17F0E7EF17F0CCEF17F01200F9
:102FD000056E0550020DE30EF324D96E000EF420A9
:102FE000DA6E0550020D310EF324E16E000EF4206E
:102FF000E26EDE50E6180AE1DE50E618D8B403EFC0
:1030000018F006EF18F0010E07EF18F0000E12008E
:10301000D7C0C9F0D8C0CAF03DEC0BF00009D8A465
:1030200014EF18F016EF18F026EF18F0D3EC18F0A4
:10303000D7C018F0D8C019F0020E1A6E000E1C6E20
:10304000100E1B6E1AEC12F0D0EC18F01200948ED9
:10305000949C000EAC6E900EAB6E7E86000E7F6E62
:10306000150EAF6E000EF26E100E936E8150F29040
:10307000F286F1809D989D8A000E9E6E080ED56E98
:10308000F28CF28AF28E1200D00E1A6EFF0E1B6EB8
:1030900018C01CF019C01DF01A501C261B501D2210
:1030A0001D500AE10A0E1C5CD8A059EF18F05CEF25
:1030B00018F0010E5DEF18F0000E186E196A12007C
:1030C000D3EC18F0D59E70EF18F0D3EC18F0020E88
:1030D000076E000E066E000EF8EC10F0D0EC18F043
:1030E000000EE8EC17F00009D8B479EF18F07BEF88
:1030F00018F065EF18F0120018C01AF019C01BF094
:1031000084EF18F0184A192A18C0D9FF19C0DAFF3D
:10311000DF50D8A48EEF18F090EF18F082EF18F07F
:103120001A50185C186E1B501958196E120018505E
:103130001A02F3CF1CF0F4CF1DF018501B02F3500D
:103140001D2619501A02F3501D261CC018F01DC070
:1031500019F01200100E996E310EC26E000EC16E83
:10316000AA0EC06E000EC46E000EC36E1200D58E85
:103170003C0ED76EAF0ED66E000E9A6E000E876EA6
:10318000000E886E12003F065B4F666D7D077F6FF5
:1031900001000A006400E803FFFFFFFFDB032800D3
:0E31A0009D8A9D8812009D9A9D981200120033
:020000040020DA
:08000000FFFFFFFFFFFFFFFF00
:020000040030CA
:0E000000FF06191EF38301FFFFC0FFE0FF4063
:00000001FF
